{
  "abi": [
    {
      "inputs": [
        {
          "internalType": "address",
          "name": "_connext",
          "type": "address"
        }
      ],
      "stateMutability": "nonpayable",
      "type": "constructor"
    },
    {
      "stateMutability": "payable",
      "type": "fallback"
    },
    {
      "inputs": [],
      "name": "connext",
      "outputs": [
        {
          "internalType": "contract IConnext",
          "name": "",
          "type": "address"
        }
      ],
      "stateMutability": "view",
      "type": "function"
    },
    {
      "inputs": [],
      "name": "pongs",
      "outputs": [
        {
          "internalType": "uint256",
          "name": "",
          "type": "uint256"
        }
      ],
      "stateMutability": "view",
      "type": "function"
    },
    {
      "inputs": [
        {
          "internalType": "bytes32",
          "name": "_transferId",
          "type": "bytes32"
        },
        {
          "internalType": "uint256",
          "name": "_amount",
          "type": "uint256"
        },
        {
          "internalType": "address",
          "name": "_asset",
          "type": "address"
        },
        {
          "internalType": "address",
          "name": "_originSender",
          "type": "address"
        },
        {
          "internalType": "uint32",
          "name": "_origin",
          "type": "uint32"
        },
        {
          "internalType": "bytes",
          "name": "_callData",
          "type": "bytes"
        }
      ],
      "name": "xReceive",
      "outputs": [
        {
          "internalType": "bytes",
          "name": "",
          "type": "bytes"
        }
      ],
      "stateMutability": "nonpayable",
      "type": "function"
    },
    {
      "stateMutability": "payable",
      "type": "receive"
    }
  ],
  "bytecode": {
    "object": "0x60a060405234801561001057600080fd5b5060405161060538038061060583398101604081905261002f91610040565b6001600160a01b0316608052610070565b60006020828403121561005257600080fd5b81516001600160a01b038116811461006957600080fd5b9392505050565b608051610574610091600039600081816079015261023201526105746000f3fe6080604052600436106100355760003560e01c8063073016941461003e578063de4b054814610067578063fd614f41146100c057005b3661003c57005b005b34801561004a57600080fd5b5061005460005481565b6040519081526020015b60405180910390f35b34801561007357600080fd5b5061009b7f000000000000000000000000000000000000000000000000000000000000000081565b60405173ffffffffffffffffffffffffffffffffffffffff909116815260200161005e565b3480156100cc57600080fd5b506100e06100db3660046102fb565b6100ed565b60405161005e9190610445565b6060600080600084806020019051810190610108919061045f565b6000805493965091945092508061011e83610498565b9190505550804710156101b7576040517f08c379a000000000000000000000000000000000000000000000000000000000815260206004820152602560248201527f4e6f7420656e6f7567682067617320746f2070617920666f722072656c61796560448201527f7220666565000000000000000000000000000000000000000000000000000000606482015260840160405180910390fd5b6101c28683836101cf565b5050509695505050505050565b600080546040516020016101e591815260200190565b60408051601f19818403018152908290527f8aac16ba000000000000000000000000000000000000000000000000000000008252915073ffffffffffffffffffffffffffffffffffffffff7f00000000000000000000000000000000000000000000000000000000000000001690638aac16ba90849061027690889088906000903390829081908b906004016104bf565b60206040518083038185885af1158015610294573d6000803e3d6000fd5b50505050506040513d601f19601f820116820180604052508101906102b99190610525565b5050505050565b73ffffffffffffffffffffffffffffffffffffffff811681146102e257600080fd5b50565b634e487b7160e01b600052604160045260246000fd5b60008060008060008060c0878903121561031457600080fd5b8635955060208701359450604087013561032d816102c0565b9350606087013561033d816102c0565b9250608087013563ffffffff8116811461035657600080fd5b915060a087013567ffffffffffffffff8082111561037357600080fd5b818901915089601f83011261038757600080fd5b813581811115610399576103996102e5565b604051601f8201601f19908116603f011681019083821181831017156103c1576103c16102e5565b816040528281528c60208487010111156103da57600080fd5b8260208601602083013760006020848301015280955050505050509295509295509295565b6000815180845260005b8181101561042557602081850181015186830182015201610409565b506000602082860101526020601f19601f83011685010191505092915050565b60208152600061045860208301846103ff565b9392505050565b60008060006060848603121561047457600080fd5b835192506020840151610486816102c0565b80925050604084015190509250925092565b6000600182016104b857634e487b7160e01b600052601160045260246000fd5b5060010190565b63ffffffff88168152600073ffffffffffffffffffffffffffffffffffffffff808916602084015280881660408401528087166060840152508460808301528360a083015260e060c083015261051860e08301846103ff565b9998505050505050505050565b60006020828403121561053757600080fd5b505191905056fea26469706673582212201593a588b202b185caff02acea98418b1bbf74d071781ab452c32346d4340e0f64736f6c63430008110033",
    "linkReferences": {}
  },
  "methodIdentifiers": {
    "connext()": "de4b0548",
    "pongs()": "07301694",
    "xReceive(bytes32,uint256,address,address,uint32,bytes)": "fd614f41"
  },
  "id": 56
}