{
  "abi": [
    {
      "inputs": [
        {
          "internalType": "uint32",
          "name": "_originDomain",
          "type": "uint32"
        },
        {
          "internalType": "address",
          "name": "_source",
          "type": "address"
        },
        {
          "internalType": "address",
          "name": "_connext",
          "type": "address"
        }
      ],
      "stateMutability": "nonpayable",
      "type": "constructor"
    },
    {
      "inputs": [],
      "name": "connext",
      "outputs": [
        {
          "internalType": "address",
          "name": "",
          "type": "address"
        }
      ],
      "stateMutability": "view",
      "type": "function"
    },
    {
      "inputs": [],
      "name": "greeting",
      "outputs": [
        {
          "internalType": "string",
          "name": "",
          "type": "string"
        }
      ],
      "stateMutability": "view",
      "type": "function"
    },
    {
      "inputs": [],
      "name": "originDomain",
      "outputs": [
        {
          "internalType": "uint32",
          "name": "",
          "type": "uint32"
        }
      ],
      "stateMutability": "view",
      "type": "function"
    },
    {
      "inputs": [],
      "name": "source",
      "outputs": [
        {
          "internalType": "address",
          "name": "",
          "type": "address"
        }
      ],
      "stateMutability": "view",
      "type": "function"
    },
    {
      "inputs": [
        {
          "internalType": "bytes32",
          "name": "_transferId",
          "type": "bytes32"
        },
        {
          "internalType": "uint256",
          "name": "_amount",
          "type": "uint256"
        },
        {
          "internalType": "address",
          "name": "_asset",
          "type": "address"
        },
        {
          "internalType": "address",
          "name": "_originSender",
          "type": "address"
        },
        {
          "internalType": "uint32",
          "name": "_origin",
          "type": "uint32"
        },
        {
          "internalType": "bytes",
          "name": "_callData",
          "type": "bytes"
        }
      ],
      "name": "xReceive",
      "outputs": [
        {
          "internalType": "bytes",
          "name": "",
          "type": "bytes"
        }
      ],
      "stateMutability": "nonpayable",
      "type": "function"
    }
  ],
  "bytecode": {
    "object": "0x60e060405234801561001057600080fd5b5060405161081738038061081783398101604081905261002f9161006d565b63ffffffff90921660a0526001600160a01b0390811660c052166080526100bb565b80516001600160a01b038116811461006857600080fd5b919050565b60008060006060848603121561008257600080fd5b835163ffffffff8116811461009657600080fd5b92506100a460208501610051565b91506100b260408501610051565b90509250925092565b60805160a05160c05161071b6100fc600039600081816071015261020501526000818160b501526101cf01526000818160f1015261024b015261071b6000f3fe608060405234801561001057600080fd5b50600436106100675760003560e01c8063de4b054811610050578063de4b0548146100ec578063ef690cc014610113578063fd614f411461012857600080fd5b806367e828bf1461006c578063cee85d7e146100b0575b600080fd5b6100937f000000000000000000000000000000000000000000000000000000000000000081565b6040516001600160a01b0390911681526020015b60405180910390f35b6100d77f000000000000000000000000000000000000000000000000000000000000000081565b60405163ffffffff90911681526020016100a7565b6100937f000000000000000000000000000000000000000000000000000000000000000081565b61011b61013b565b6040516100a791906103b1565b61011b610136366004610456565b6101c9565b6000805461014890610525565b80601f016020809104026020016040519081016040528092919081815260200182805461017490610525565b80156101c15780601f10610196576101008083540402835291602001916101c1565b820191906000526020600020905b8154815290600101906020018083116101a457829003601f168201915b505050505081565b606083837f000000000000000000000000000000000000000000000000000000000000000063ffffffff168163ffffffff1614801561023957507f00000000000000000000000000000000000000000000000000000000000000006001600160a01b0316826001600160a01b0316145b801561026d5750336001600160a01b037f000000000000000000000000000000000000000000000000000000000000000016145b610323576040517f08c379a000000000000000000000000000000000000000000000000000000000815260206004820152606060248201527f4578706563746564206f726967696e616c2063616c6c657220746f206265207360448201527f6f7572636520636f6e7472616374206f6e206f726967696e20646f6d61696e2060648201527f616e64207468697320746f2062652063616c6c656420627920436f6e6e657874608482015260a40160405180910390fd5b600084806020019051810190610339919061055f565b905061034481610351565b5050509695505050505050565b600061035d8282610625565b5050565b60005b8381101561037c578181015183820152602001610364565b50506000910152565b6000815180845261039d816020860160208601610361565b601f01601f19169290920160200192915050565b6020815260006103c46020830184610385565b9392505050565b80356001600160a01b03811681146103e257600080fd5b919050565b634e487b7160e01b600052604160045260246000fd5b604051601f8201601f1916810167ffffffffffffffff81118282101715610426576104266103e7565b604052919050565b600067ffffffffffffffff821115610448576104486103e7565b50601f01601f191660200190565b60008060008060008060c0878903121561046f57600080fd5b8635955060208701359450610486604088016103cb565b9350610494606088016103cb565b9250608087013563ffffffff811681146104ad57600080fd5b915060a087013567ffffffffffffffff8111156104c957600080fd5b8701601f810189136104da57600080fd5b80356104ed6104e88261042e565b6103fd565b8181528a602083850101111561050257600080fd5b816020840160208301376000602083830101528093505050509295509295509295565b600181811c9082168061053957607f821691505b60208210810361055957634e487b7160e01b600052602260045260246000fd5b50919050565b60006020828403121561057157600080fd5b815167ffffffffffffffff81111561058857600080fd5b8201601f8101841361059957600080fd5b80516105a76104e88261042e565b8181528560208385010111156105bc57600080fd5b6105cd826020830160208601610361565b95945050505050565b601f82111561062057600081815260208120601f850160051c810160208610156105fd5750805b601f850160051c820191505b8181101561061c57828155600101610609565b5050505b505050565b815167ffffffffffffffff81111561063f5761063f6103e7565b6106538161064d8454610525565b846105d6565b602080601f83116001811461068857600084156106705750858301515b600019600386901b1c1916600185901b17855561061c565b600085815260208120601f198616915b828110156106b757888601518255948401946001909101908401610698565b50858210156106d55787850151600019600388901b60f8161c191681555b5050505050600190811b0190555056fea2646970667358221220b6ecc7003725e603651b8bd4c97cd344a478f140deb1b106cf83d94064b6959d64736f6c63430008110033",
    "linkReferences": {}
  },
  "methodIdentifiers": {
    "connext()": "de4b0548",
    "greeting()": "ef690cc0",
    "originDomain()": "cee85d7e",
    "source()": "67e828bf",
    "xReceive(bytes32,uint256,address,address,uint32,bytes)": "fd614f41"
  },
  "id": 51
}