{
  "abi": [
    {
      "inputs": [
        {
          "internalType": "address",
          "name": "_connext",
          "type": "address"
        }
      ],
      "stateMutability": "nonpayable",
      "type": "constructor"
    },
    {
      "inputs": [],
      "name": "connext",
      "outputs": [
        {
          "internalType": "contract IConnext",
          "name": "",
          "type": "address"
        }
      ],
      "stateMutability": "view",
      "type": "function"
    },
    {
      "inputs": [
        {
          "internalType": "address",
          "name": "token",
          "type": "address"
        },
        {
          "internalType": "uint256",
          "name": "amount",
          "type": "uint256"
        },
        {
          "internalType": "address",
          "name": "recipient",
          "type": "address"
        },
        {
          "internalType": "uint32",
          "name": "destinationDomain",
          "type": "uint32"
        },
        {
          "internalType": "uint256",
          "name": "slippage",
          "type": "uint256"
        },
        {
          "internalType": "uint256",
          "name": "relayerFee",
          "type": "uint256"
        }
      ],
      "name": "xTransfer",
      "outputs": [],
      "stateMutability": "payable",
      "type": "function"
    },
    {
      "inputs": [
        {
          "internalType": "address",
          "name": "destinationUnwrapper",
          "type": "address"
        },
        {
          "internalType": "address",
          "name": "weth",
          "type": "address"
        },
        {
          "internalType": "uint256",
          "name": "amount",
          "type": "uint256"
        },
        {
          "internalType": "address",
          "name": "recipient",
          "type": "address"
        },
        {
          "internalType": "uint32",
          "name": "destinationDomain",
          "type": "uint32"
        },
        {
          "internalType": "uint256",
          "name": "slippage",
          "type": "uint256"
        },
        {
          "internalType": "uint256",
          "name": "relayerFee",
          "type": "uint256"
        }
      ],
      "name": "xTransferEth",
      "outputs": [],
      "stateMutability": "payable",
      "type": "function"
    }
  ],
  "bytecode": {
    "object": "0x60a060405234801561001057600080fd5b506040516107e73803806107e783398101604081905261002f91610040565b6001600160a01b0316608052610070565b60006020828403121561005257600080fd5b81516001600160a01b038116811461006957600080fd5b9392505050565b6080516107416100a660003960008181607301528181610119015281816101d80152818161040801526104a901526107416000f3fe6080604052600436106100345760003560e01c80635d754c1b1461003957806398b8de221461004e578063de4b054814610061575b600080fd5b61004c610047366004610567565b6100b1565b005b61004c61005c3660046105d8565b610269565b34801561006d57600080fd5b506100957f000000000000000000000000000000000000000000000000000000000000000081565b6040516001600160a01b03909116815260200160405180910390f35b856001600160a01b031663d0e30db0866040518263ffffffff1660e01b81526004016000604051808303818588803b1580156100ec57600080fd5b505af1158015610100573d6000803e3d6000fd5b505060405163095ea7b360e01b81526001600160a01b037f000000000000000000000000000000000000000000000000000000000000000081166004830152602482018a90528a16935063095ea7b3925060440190506020604051808303816000875af1158015610175573d6000803e3d6000fd5b505050506040513d601f19601f820116820180604052508101906101999190610637565b50604080516001600160a01b03861660208201526000910160408051601f19818403018152908290526345560b5d60e11b825291506001600160a01b037f00000000000000000000000000000000000000000000000000000000000000001690638aac16ba90849061021b9088908d908d9033908e908c908b90600401610660565b60206040518083038185885af1158015610239573d6000803e3d6000fd5b50505050506040513d601f19601f8201168201806040525081019061025e91906106f2565b505050505050505050565b6040517fdd62ed3e000000000000000000000000000000000000000000000000000000008152336004820152306024820152869086906001600160a01b0383169063dd62ed3e90604401602060405180830381865afa1580156102d0573d6000803e3d6000fd5b505050506040513d601f19601f820116820180604052508101906102f491906106f2565b1015610360576040517f08c379a000000000000000000000000000000000000000000000000000000000815260206004820152601860248201527f55736572206d75737420617070726f766520616d6f756e740000000000000000604482015260640160405180910390fd5b6040517f23b872dd000000000000000000000000000000000000000000000000000000008152336004820152306024820152604481018790526001600160a01b038216906323b872dd906064016020604051808303816000875af11580156103cc573d6000803e3d6000fd5b505050506040513d601f19601f820116820180604052508101906103f09190610637565b5060405163095ea7b360e01b81526001600160a01b037f0000000000000000000000000000000000000000000000000000000000000000811660048301526024820188905282169063095ea7b3906044016020604051808303816000875af1158015610460573d6000803e3d6000fd5b505050506040513d601f19601f820116820180604052508101906104849190610637565b50604080516020810182526000815290516345560b5d60e11b81526001600160a01b037f00000000000000000000000000000000000000000000000000000000000000001691638aac16ba9185916104ea9189918b918e9133918f918d91600401610660565b60206040518083038185885af1158015610508573d6000803e3d6000fd5b50505050506040513d601f19601f8201168201806040525081019061052d91906106f2565b5050505050505050565b80356001600160a01b038116811461054e57600080fd5b919050565b803563ffffffff8116811461054e57600080fd5b600080600080600080600060e0888a03121561058257600080fd5b61058b88610537565b965061059960208901610537565b9550604088013594506105ae60608901610537565b93506105bc60808901610553565b925060a0880135915060c0880135905092959891949750929550565b60008060008060008060c087890312156105f157600080fd5b6105fa87610537565b95506020870135945061060f60408801610537565b935061061d60608801610553565b92506080870135915060a087013590509295509295509295565b60006020828403121561064957600080fd5b8151801515811461065957600080fd5b9392505050565b63ffffffff88168152600060206001600160a01b03808a168285015280891660408501528088166060850152508560808401528460a084015260e060c084015283518060e085015260005b818110156106c857858101830151858201610100015282016106ab565b506101009150600082828601015281601f19601f8301168501019250505098975050505050505050565b60006020828403121561070457600080fd5b505191905056fea264697066735822122043770f64236c2988fc5d622c2b313c8ceb37a13daf318c648057d807100f49ea64736f6c63430008110033",
    "linkReferences": {}
  },
  "methodIdentifiers": {
    "connext()": "de4b0548",
    "xTransfer(address,uint256,address,uint32,uint256,uint256)": "98b8de22",
    "xTransferEth(address,address,uint256,address,uint32,uint256,uint256)": "5d754c1b"
  },
  "id": 57
}