{
  "abi": [
    {
      "inputs": [
        {
          "internalType": "address",
          "name": "_token",
          "type": "address"
        }
      ],
      "stateMutability": "nonpayable",
      "type": "constructor"
    },
    {
      "inputs": [],
      "name": "greeting",
      "outputs": [
        {
          "internalType": "string",
          "name": "",
          "type": "string"
        }
      ],
      "stateMutability": "view",
      "type": "function"
    },
    {
      "inputs": [],
      "name": "token",
      "outputs": [
        {
          "internalType": "contract IERC20",
          "name": "",
          "type": "address"
        }
      ],
      "stateMutability": "view",
      "type": "function"
    },
    {
      "inputs": [
        {
          "internalType": "bytes32",
          "name": "_transferId",
          "type": "bytes32"
        },
        {
          "internalType": "uint256",
          "name": "_amount",
          "type": "uint256"
        },
        {
          "internalType": "address",
          "name": "_asset",
          "type": "address"
        },
        {
          "internalType": "address",
          "name": "_originSender",
          "type": "address"
        },
        {
          "internalType": "uint32",
          "name": "_origin",
          "type": "uint32"
        },
        {
          "internalType": "bytes",
          "name": "_callData",
          "type": "bytes"
        }
      ],
      "name": "xReceive",
      "outputs": [
        {
          "internalType": "bytes",
          "name": "",
          "type": "bytes"
        }
      ],
      "stateMutability": "nonpayable",
      "type": "function"
    }
  ],
  "bytecode": {
    "object": "0x60a060405234801561001057600080fd5b506040516106d73803806106d783398101604081905261002f91610040565b6001600160a01b0316608052610070565b60006020828403121561005257600080fd5b81516001600160a01b038116811461006957600080fd5b9392505050565b608051610646610091600039600081816069015261015501526106466000f3fe608060405234801561001057600080fd5b50600436106100415760003560e01c8063ef690cc014610046578063fc0c546a14610064578063fd614f41146100b0575b600080fd5b61004e6100c3565b60405161005b91906102cf565b60405180910390f35b61008b7f000000000000000000000000000000000000000000000000000000000000000081565b60405173ffffffffffffffffffffffffffffffffffffffff909116815260200161005b565b61004e6100be366004610381565b610151565b600080546100d090610450565b80601f01602080910402602001604051908101604052809291908181526020018280546100fc90610450565b80156101495780601f1061011e57610100808354040283529160200191610149565b820191906000526020600020905b81548152906001019060200180831161012c57829003601f168201915b505050505081565b60607f000000000000000000000000000000000000000000000000000000000000000073ffffffffffffffffffffffffffffffffffffffff168573ffffffffffffffffffffffffffffffffffffffff16146101f35760405162461bcd60e51b815260206004820152601460248201527f57726f6e6720617373657420726563656976656400000000000000000000000060448201526064015b60405180910390fd5b600086116102435760405162461bcd60e51b815260206004820152601760248201527f4d75737420706179206174206c6561737420312077656900000000000000000060448201526064016101ea565b600082806020019051810190610259919061048a565b90506102648161026f565b509695505050505050565b600061027b8282610550565b5050565b60005b8381101561029a578181015183820152602001610282565b50506000910152565b600081518084526102bb81602086016020860161027f565b601f01601f19169290920160200192915050565b6020815260006102e260208301846102a3565b9392505050565b803573ffffffffffffffffffffffffffffffffffffffff8116811461030d57600080fd5b919050565b634e487b7160e01b600052604160045260246000fd5b604051601f8201601f1916810167ffffffffffffffff8111828210171561035157610351610312565b604052919050565b600067ffffffffffffffff82111561037357610373610312565b50601f01601f191660200190565b60008060008060008060c0878903121561039a57600080fd5b86359550602087013594506103b1604088016102e9565b93506103bf606088016102e9565b9250608087013563ffffffff811681146103d857600080fd5b915060a087013567ffffffffffffffff8111156103f457600080fd5b8701601f8101891361040557600080fd5b803561041861041382610359565b610328565b8181528a602083850101111561042d57600080fd5b816020840160208301376000602083830101528093505050509295509295509295565b600181811c9082168061046457607f821691505b60208210810361048457634e487b7160e01b600052602260045260246000fd5b50919050565b60006020828403121561049c57600080fd5b815167ffffffffffffffff8111156104b357600080fd5b8201601f810184136104c457600080fd5b80516104d261041382610359565b8181528560208385010111156104e757600080fd5b6104f882602083016020860161027f565b95945050505050565b601f82111561054b57600081815260208120601f850160051c810160208610156105285750805b601f850160051c820191505b8181101561054757828155600101610534565b5050505b505050565b815167ffffffffffffffff81111561056a5761056a610312565b61057e816105788454610450565b84610501565b602080601f8311600181146105b3576000841561059b5750858301515b600019600386901b1c1916600185901b178555610547565b600085815260208120601f198616915b828110156105e2578886015182559484019460019091019084016105c3565b50858210156106005787850151600019600388901b60f8161c191681555b5050505050600190811b0190555056fea2646970667358221220b0f5e073d2df6b09271baa1250f6ebed15facefb8bee9e598bc03e977d9fa83664736f6c63430008110033",
    "linkReferences": {}
  },
  "methodIdentifiers": {
    "greeting()": "ef690cc0",
    "token()": "fc0c546a",
    "xReceive(bytes32,uint256,address,address,uint32,bytes)": "fd614f41"
  },
  "id": 53
}