{
  "abi": [
    {
      "inputs": [
        {
          "internalType": "address",
          "name": "_connext",
          "type": "address"
        }
      ],
      "stateMutability": "nonpayable",
      "type": "constructor"
    },
    {
      "inputs": [],
      "name": "connext",
      "outputs": [
        {
          "internalType": "contract IConnext",
          "name": "",
          "type": "address"
        }
      ],
      "stateMutability": "view",
      "type": "function"
    },
    {
      "inputs": [],
      "name": "pings",
      "outputs": [
        {
          "internalType": "uint256",
          "name": "",
          "type": "uint256"
        }
      ],
      "stateMutability": "view",
      "type": "function"
    },
    {
      "inputs": [
        {
          "internalType": "address",
          "name": "target",
          "type": "address"
        },
        {
          "internalType": "uint32",
          "name": "destinationDomain",
          "type": "uint32"
        },
        {
          "internalType": "uint256",
          "name": "relayerFee",
          "type": "uint256"
        }
      ],
      "name": "startPingPong",
      "outputs": [],
      "stateMutability": "payable",
      "type": "function"
    },
    {
      "inputs": [
        {
          "internalType": "bytes32",
          "name": "_transferId",
          "type": "bytes32"
        },
        {
          "internalType": "uint256",
          "name": "_amount",
          "type": "uint256"
        },
        {
          "internalType": "address",
          "name": "_asset",
          "type": "address"
        },
        {
          "internalType": "address",
          "name": "_originSender",
          "type": "address"
        },
        {
          "internalType": "uint32",
          "name": "_origin",
          "type": "uint32"
        },
        {
          "internalType": "bytes",
          "name": "_callData",
          "type": "bytes"
        }
      ],
      "name": "xReceive",
      "outputs": [
        {
          "internalType": "bytes",
          "name": "",
          "type": "bytes"
        }
      ],
      "stateMutability": "nonpayable",
      "type": "function"
    }
  ],
  "bytecode": {
    "object": "0x60a060405234801561001057600080fd5b5060405161061f38038061061f83398101604081905261002f91610040565b6001600160a01b0316608052610070565b60006020828403121561005257600080fd5b81516001600160a01b038116811461006957600080fd5b9392505050565b60805161058e6100916000396000818160940152610207015261058e6000f3fe60806040526004361061003f5760003560e01c80631ca2d467146100445780631e81ccb214610059578063de4b054814610082578063fd614f41146100db575b600080fd5b61005761005236600461030b565b610108565b005b34801561006557600080fd5b5061006f60005481565b6040519081526020015b60405180910390f35b34801561008e57600080fd5b506100b67f000000000000000000000000000000000000000000000000000000000000000081565b60405173ffffffffffffffffffffffffffffffffffffffff9091168152602001610079565b3480156100e757600080fd5b506100fb6100f636600461035d565b610295565b6040516100799190610498565b80341461019b576040517f08c379a000000000000000000000000000000000000000000000000000000000815260206004820152603060248201527f4d7573742073656e642067617320657175616c20746f2074686520737065636960448201527f666965642072656c617965722066656500000000000000000000000000000000606482015260840160405180910390fd5b6000805460408051602081019290925230908201526060810183905260800160408051601f19818403018152908290527f8aac16ba000000000000000000000000000000000000000000000000000000008252915073ffffffffffffffffffffffffffffffffffffffff7f00000000000000000000000000000000000000000000000000000000000000001690638aac16ba90849061024b90879089906000903390829081908b906004016104b2565b60206040518083038185885af1158015610269573d6000803e3d6000fd5b50505050506040513d601f19601f8201168201806040525081019061028e9190610518565b5050505050565b60606000828060200190518101906102ad9190610518565b60008054919250806102be83610531565b9190505550509695505050505050565b803573ffffffffffffffffffffffffffffffffffffffff811681146102f257600080fd5b919050565b803563ffffffff811681146102f257600080fd5b60008060006060848603121561032057600080fd5b610329846102ce565b9250610337602085016102f7565b9150604084013590509250925092565b634e487b7160e01b600052604160045260246000fd5b60008060008060008060c0878903121561037657600080fd5b863595506020870135945061038d604088016102ce565b935061039b606088016102ce565b92506103a9608088016102f7565b915060a087013567ffffffffffffffff808211156103c657600080fd5b818901915089601f8301126103da57600080fd5b8135818111156103ec576103ec610347565b604051601f8201601f19908116603f0116810190838211818310171561041457610414610347565b816040528281528c602084870101111561042d57600080fd5b8260208601602083013760006020848301015280955050505050509295509295509295565b6000815180845260005b818110156104785760208185018101518683018201520161045c565b506000602082860101526020601f19601f83011685010191505092915050565b6020815260006104ab6020830184610452565b9392505050565b63ffffffff88168152600073ffffffffffffffffffffffffffffffffffffffff808916602084015280881660408401528087166060840152508460808301528360a083015260e060c083015261050b60e0830184610452565b9998505050505050505050565b60006020828403121561052a57600080fd5b5051919050565b60006001820161055157634e487b7160e01b600052601160045260246000fd5b506001019056fea264697066735822122033c508cade95039a1fde498731061d693d6a66010c0b8d5f3085ff9ffd10ee1964736f6c63430008110033",
    "linkReferences": {}
  },
  "methodIdentifiers": {
    "connext()": "de4b0548",
    "pings()": "1e81ccb2",
    "startPingPong(address,uint32,uint256)": "1ca2d467",
    "xReceive(bytes32,uint256,address,address,uint32,bytes)": "fd614f41"
  },
  "id": 55
}