{
  "abi": [
    {
      "inputs": [
        {
          "internalType": "address",
          "name": "_connext",
          "type": "address"
        }
      ],
      "stateMutability": "nonpayable",
      "type": "constructor"
    },
    {
      "inputs": [],
      "name": "connext",
      "outputs": [
        {
          "internalType": "contract IConnext",
          "name": "",
          "type": "address"
        }
      ],
      "stateMutability": "view",
      "type": "function"
    },
    {
      "inputs": [
        {
          "internalType": "address",
          "name": "target",
          "type": "address"
        },
        {
          "internalType": "uint32",
          "name": "destinationDomain",
          "type": "uint32"
        },
        {
          "internalType": "string",
          "name": "newGreeting",
          "type": "string"
        },
        {
          "internalType": "uint256",
          "name": "relayerFee",
          "type": "uint256"
        }
      ],
      "name": "xUpdateGreeting",
      "outputs": [],
      "stateMutability": "payable",
      "type": "function"
    }
  ],
  "bytecode": {
    "object": "0x60a060405234801561001057600080fd5b5060405161046438038061046483398101604081905261002f91610040565b6001600160a01b0316608052610070565b60006020828403121561005257600080fd5b81516001600160a01b038116811461006957600080fd5b9392505050565b6080516103d3610091600039600081816055015261010001526103d36000f3fe6080604052600436106100295760003560e01c8063b1765ba71461002e578063de4b054814610043575b600080fd5b61004161003c3660046101be565b6100a0565b005b34801561004f57600080fd5b506100777f000000000000000000000000000000000000000000000000000000000000000081565b60405173ffffffffffffffffffffffffffffffffffffffff909116815260200160405180910390f35b6000826040516020016100b39190610304565b60408051601f19818403018152908290527f8aac16ba000000000000000000000000000000000000000000000000000000008252915073ffffffffffffffffffffffffffffffffffffffff7f00000000000000000000000000000000000000000000000000000000000000001690638aac16ba9084906101449088908a906000903390829081908b9060040161031e565b60206040518083038185885af1158015610162573d6000803e3d6000fd5b50505050506040513d601f19601f820116820180604052508101906101879190610384565b505050505050565b7f4e487b7100000000000000000000000000000000000000000000000000000000600052604160045260246000fd5b600080600080608085870312156101d457600080fd5b843573ffffffffffffffffffffffffffffffffffffffff811681146101f857600080fd5b9350602085013563ffffffff8116811461021157600080fd5b9250604085013567ffffffffffffffff8082111561022e57600080fd5b818701915087601f83011261024257600080fd5b8135818111156102545761025461018f565b604051601f8201601f19908116603f0116810190838211818310171561027c5761027c61018f565b816040528281528a602084870101111561029557600080fd5b826020860160208301376000928101602001929092525095989497509495606001359450505050565b6000815180845260005b818110156102e4576020818501810151868301820152016102c8565b506000602082860101526020601f19601f83011685010191505092915050565b60208152600061031760208301846102be565b9392505050565b63ffffffff88168152600073ffffffffffffffffffffffffffffffffffffffff808916602084015280881660408401528087166060840152508460808301528360a083015260e060c083015261037760e08301846102be565b9998505050505050505050565b60006020828403121561039657600080fd5b505191905056fea26469706673582212208eda77821e4db5947a881ce29f89bcb843ac9a8aca9cbe628751e17effc711ff64736f6c63430008110033",
    "linkReferences": {}
  },
  "methodIdentifiers": {
    "connext()": "de4b0548",
    "xUpdateGreeting(address,uint32,string,uint256)": "b1765ba7"
  },
  "id": 52
}