{
  "abi": [
    {
      "inputs": [
        {
          "internalType": "address",
          "name": "_connext",
          "type": "address"
        },
        {
          "internalType": "address",
          "name": "_token",
          "type": "address"
        }
      ],
      "stateMutability": "nonpayable",
      "type": "constructor"
    },
    {
      "inputs": [],
      "name": "connext",
      "outputs": [
        {
          "internalType": "contract IConnext",
          "name": "",
          "type": "address"
        }
      ],
      "stateMutability": "view",
      "type": "function"
    },
    {
      "inputs": [],
      "name": "slippage",
      "outputs": [
        {
          "internalType": "uint256",
          "name": "",
          "type": "uint256"
        }
      ],
      "stateMutability": "view",
      "type": "function"
    },
    {
      "inputs": [],
      "name": "token",
      "outputs": [
        {
          "internalType": "contract IERC20",
          "name": "",
          "type": "address"
        }
      ],
      "stateMutability": "view",
      "type": "function"
    },
    {
      "inputs": [
        {
          "internalType": "address",
          "name": "target",
          "type": "address"
        },
        {
          "internalType": "uint32",
          "name": "destinationDomain",
          "type": "uint32"
        },
        {
          "internalType": "string",
          "name": "newGreeting",
          "type": "string"
        },
        {
          "internalType": "uint256",
          "name": "amount",
          "type": "uint256"
        },
        {
          "internalType": "uint256",
          "name": "relayerFee",
          "type": "uint256"
        }
      ],
      "name": "xUpdateGreeting",
      "outputs": [],
      "stateMutability": "payable",
      "type": "function"
    }
  ],
  "bytecode": {
    "object": "0x60e060405261271060c05234801561001657600080fd5b5060405161082338038061082383398101604081905261003591610068565b6001600160a01b039182166080521660a05261009b565b80516001600160a01b038116811461006357600080fd5b919050565b6000806040838503121561007b57600080fd5b6100848361004c565b91506100926020840161004c565b90509250929050565b60805160a05160c05161072b6100f860003960008181606b015261045f01526000818160fe015281816101560152818161027001528181610345015261043901526000818160b2015281816103160152610406015261072b6000f3fe60806040526004361061003f5760003560e01c80631905e874146100445780633e032a3b14610059578063de4b0548146100a0578063fc0c546a146100ec575b600080fd5b610057610052366004610504565b610120565b005b34801561006557600080fd5b5061008d7f000000000000000000000000000000000000000000000000000000000000000081565b6040519081526020015b60405180910390f35b3480156100ac57600080fd5b506100d47f000000000000000000000000000000000000000000000000000000000000000081565b6040516001600160a01b039091168152602001610097565b3480156100f857600080fd5b506100d47f000000000000000000000000000000000000000000000000000000000000000081565b6040517fdd62ed3e00000000000000000000000000000000000000000000000000000000815233600482015230602482015282907f00000000000000000000000000000000000000000000000000000000000000006001600160a01b03169063dd62ed3e90604401602060405180830381865afa1580156101a5573d6000803e3d6000fd5b505050506040513d601f19601f820116820180604052508101906101c99190610601565b1015610235576040517f08c379a000000000000000000000000000000000000000000000000000000000815260206004820152601860248201527f55736572206d75737420617070726f766520616d6f756e740000000000000000604482015260640160405180910390fd5b6040517f23b872dd000000000000000000000000000000000000000000000000000000008152336004820152306024820152604481018390527f00000000000000000000000000000000000000000000000000000000000000006001600160a01b0316906323b872dd906064016020604051808303816000875af11580156102c1573d6000803e3d6000fd5b505050506040513d601f19601f820116820180604052508101906102e5919061061a565b506040517f095ea7b30000000000000000000000000000000000000000000000000000000081526001600160a01b037f000000000000000000000000000000000000000000000000000000000000000081166004830152602482018490527f0000000000000000000000000000000000000000000000000000000000000000169063095ea7b3906044016020604051808303816000875af115801561038e573d6000803e3d6000fd5b505050506040513d601f19601f820116820180604052508101906103b2919061061a565b506000836040516020016103c69190610689565b60408051601f19818403018152908290527f8aac16ba00000000000000000000000000000000000000000000000000000000825291506001600160a01b037f00000000000000000000000000000000000000000000000000000000000000001690638aac16ba9084906104899089908b907f00000000000000000000000000000000000000000000000000000000000000009033908b907f0000000000000000000000000000000000000000000000000000000000000000908b9060040161069c565b60206040518083038185885af11580156104a7573d6000803e3d6000fd5b50505050506040513d601f19601f820116820180604052508101906104cc9190610601565b50505050505050565b7f4e487b7100000000000000000000000000000000000000000000000000000000600052604160045260246000fd5b600080600080600060a0868803121561051c57600080fd5b85356001600160a01b038116811461053357600080fd5b9450602086013563ffffffff8116811461054c57600080fd5b9350604086013567ffffffffffffffff8082111561056957600080fd5b818801915088601f83011261057d57600080fd5b81358181111561058f5761058f6104d5565b604051601f8201601f19908116603f011681019083821181831017156105b7576105b76104d5565b816040528281528b60208487010111156105d057600080fd5b8260208601602083013760009281016020019290925250969995985095966060810135965060800135949350505050565b60006020828403121561061357600080fd5b5051919050565b60006020828403121561062c57600080fd5b8151801515811461063c57600080fd5b9392505050565b6000815180845260005b818110156106695760208185018101518683018201520161064d565b506000602082860101526020601f19601f83011685010191505092915050565b60208152600061063c6020830184610643565b63ffffffff8816815260006001600160a01b03808916602084015280881660408401528087166060840152508460808301528360a083015260e060c08301526106e860e0830184610643565b999850505050505050505056fea264697066735822122037225f3eab0c70f59fd7ef56ffc7ecf40efad590fd411e95baf5b481a4fc488c64736f6c63430008110033",
    "linkReferences": {}
  },
  "methodIdentifiers": {
    "connext()": "de4b0548",
    "slippage()": "3e032a3b",
    "token()": "fc0c546a",
    "xUpdateGreeting(address,uint32,string,uint256,uint256)": "1905e874"
  },
  "id": 54
}